:1006F30020202020202020202020202020202020F7
:1007030000C4D6D6D33F3F00B9ABD4AA00CEC2B6FD
:10071300C820202020CAAAB6C800312EB1BEB5D841
:10072300CAB1BCE4C9E8D6C300322EC4D6D6D3C9F5
:10073300E8D6C300332ECEC2B6C8E3D0D6B5C9E8D7
:10074300D6C300342EC6E4CBFBD1A1CFEE00B0B4A8
:0F0753005B4F4B5DBCFCB4F2BFAAB2CBB5A500A7
:0400030002190000DE
:03000B00020A36B0
:0D0A3600C0E0051AE51A70020519D0E03283
:1009D200AD071FED600BE4FEEEC3940D50F20E80E6
:0109E200F71D
:0109E30022F1
:10094D00EF1FAA0670011E4A600FE4FDEDC394FA75
:09095D0050EE000000000D80F3D3
:01096600226E
:03000800DFFE22F6
:1008BC00D3EF9400EE940040147D6E7C00ED1D701F
:0D08CC00011CED4C70F7EF1F70E61E80E37D
:0108D90022FC
:1009E400AD071FED600BE4FEEEC3940D50F20E80D4
:0109F400F70B
:0109F50022DF
:04089D007F057E0055
:0A08A100EF1FAC0670011E4C601042
:1008AB00E4F523E523C3946E50EC0000052380F39D
:0108BB00221A
:1008DA00E4FDFCC2A07F96120008D2A07F96120007
:0C08EA00080DBD00010CED64644C70E7CB
:0108F60022DF
:1008F700E4FDFCC2A07F64120008D2A07F6412004E
:0C090700080DBD00010CED64C84C70E749
:0109130022C1
:10099800C2B5D2B6D2B400000000E580339200C2DE
:0309A800B4A200F6
:0109AB002229
:1009310012099840FBC2B5C2B6C2B400008F800054
:0C094100000000D2B400000000C2B4228C
:10085D00EF70047F808013BF01047F90800CBF0276
:10086D00047F888005BF03027F98EF2DFF020931B9
:1009670012099840FBD2B5C2B6C2B48F800000000E
:0A09770000D2B400000000C2B42258
:1007F000D2B17F3412093112089D7F3012093112B3
:10080000089D7F0C12093112089D7F011209317F6A
:06081000057E000208A1B4
:10098100D2907F02120008C2907F147E001208BC30
:07099100D2907F1E02000856
:10091400E4FEFD3090FD7F08120008EE25E0FE3075
:0C09240090010E2090FD0DBD08E9AF060B
:0109300022A4
:100228001209813090030203373090FD7F281200B5
:10023800081209148F4D1209148F4E1209148F4F8A
:100248001209148F501209148F557F19120008E5EE
:100258004D254EFFE433FE7C00EF254FFFEC3EFEBC
:10026800EF2550FFEC3EFEEFB55510ECB5060C85BA
:100278004D51854E52854F53855054900002E48568
:1002880051F0120112E48553F01200F3120090C3EA
:10029800E5F064809480E55375F00A4020842430AA
:1002A80090000412006EE55375F00A84E5F02430DE
:1002B80090000512006E9000067443801E8424305E
:1002C80090000512006EE55375F00A84E5F02430BD
:1002D80090000612006E900004742D12006E9000BB
:1002E80007E412006E9000021200BB646445F070CF
:1002F8000990000275F063120112E55175F00A8445
:10030800243090000812006EE55175F00A84E5F07B
:10031800243090000912006E90000A745212006E88
:0F03280090000B744812006E90000CE412006EEF
:0103370022A3
:0F0A0700EF7F08A2E092A4D2A5C2A5C313DFF42B
:010A160022BD
:0F0A17007F08C313A2A492E7D2A5C2A5DFF4FF04
:010A260022AD
:1009AC00AE05C2A3C2A5D2A3120A07AF06120A074C
:0309BC00C2A322B1
:1009BF00C2A3C2A5D2A3EF4401FF120A07120A175E
:0209CF00C2A3C1
:0109D1002203
:0F0A27003000047D108002E4FD7F8E1209AC22A6
:10087D00AC05AB07C200120A27AF03EC75F00A8472
:10088D00C454F0FEEC75F00A84E5F04EFD0209AC9F
:1003F6007F801209BFEF5470C4540F75F00AA4FE33
:10040600EF540F2E12005C7F821209BFEF5470C4A6
:10041600540F75F00AA4FEEF540F2E90000112003F
:100426006E7F841209BFEF5470C4540F75F00AA48E
:10043600FEEF540F2E90000212006E7F861209BF47
:10044600EF5470C4540F75F00AA4FEEF540F2E90AB
:10045600000412006E7F8A1209BFEF5470C4540F55
:1004660075F00AA4FEEF540F2E90000312006E7F63
:10047600881209BFEF5470C4540F75F00AA4FEEF3A
:10048600540F2E90000512006E7F8C1209BFEF5498
:1004960070C4540F75F00AA4FEEF540F2E90000698
:0304A60002006EE3
:1004A90090000612002F75F00A842430900007127C
:1004B900006E90000612002F75F00A84E5F02430D2
:1004C90090000812006E90000974C412006E90002A
:1004D9000A74EA12006E90000512002F75F00A8462
:1004E900243090000B12006E90000512002F75F059
:1004F9000A84E5F0243090000C12006E90000D740F
:10050900D412006E90000E74C212006E9000041294
:10051900002F75F00A84243090000F12006E9000AD
:100529000412002F75F00A84E5F0243090001012AF
:10053900006E90001174C812006E90001274D512EA
:09054900006E900013E402006E44
:1006710090000212002F75F00A84243090001412A9
:10068100006E90000212002F75F00A84E5F024300C
:1006910090001512006E900016743A12006E9000D0
:1006A1000112002F75F00A84243090001712006E99
:1006B10090000112002F75F00A84E5F024309000BB
:1006C1001812006E900019743A12006E120016FF93
:1006D10075F00A84243090001A12006EEF75F00A4A
:1006E10084E5F0243090001B12006E90001CE4029F
:0206F100006E99
:1009F6007F801209BFEF30E707E4FD7F8012087D94
:010A060022CD
:0F083A0078087C007D007BFF12020BE4FD7F013C
:1008490012085DE4FE74082EF8E6FF6006120967D7
:030859000E80F21C
:01085C002279
:1008160078087C007D007BFF7A0679F312020BE4F0
:10082600FDFF1208497F011208497F021208497F1D
:040836000302084968
:0300130002055291
:07055200C0E0C0D075D0002D
:10055900752200C2AA7F0F1209D230B304D2AA8031
:100569007620B3077F011209D280F6E4FC752100D9
:1005790030B3077F011209D280F620B3077F011239
:1005890009D280F630B3127F011209D20522E52281
:10059900C3941E40EFD2AA803E741B2CF8C000E61B
:1005A900FFC313D000F6E522C394084008741B2C3E
:1005B900F8E64480F67522000521E521C394084038
:1005C900AF0CEC640470A6E51EF4651D6004D2AAA4
:0705D90080051208DAD2AA26
:0505E000D0D0D0E03294
:10033800C3E51A9405E519940050030203F57B0000
:100348007A0079231203F61204A91206717A007949
:1003580040120228E4FF74372FF8E6FE74082FF8DD
:10036800A6060FBF09F0E4FDFF12084978087C00D3
:100378007BFF7A07790412020B7D05E4FF12084916
:100388007A07790B12083AE4FF742A2FF8E6FE740C
:10039800082FF8A6060FBF0DF07D027F011208494D
:1003A80078087C007D007BFF7A07791012020BE445
:1003B800FD7F02120849E4FF74442FF8E6FE740832
:1003C8002FF8A6060FBF04F07D027F02120849E449
:1003D800FF74482FF8E6FE74082FF8A6060FBF052D
:0D03E800F07D067F02120849E4F519F51AB0
:0103F50022E5
:1007620012081678087C007D007BFF7A07791D123B
:10077200020BE4FDFF12084978087C007BFF7A0730
:10078200792C12084278087C007BFF7A07793712AD
:10079200020BE4FD7F0212084978087C007BFF7A95
:0F07A20007794612020BE4FD7F0312084980FE1F
:1007B10075A884758810D2B3758901758C4CE4F5E0
:1007C1008AD2A9D2AF1207F01209F67A077951122B
:1007D100083A7FF47E011208A11208161208DA12F3
:0F07E10008F7120338E51DB41CF812076280F305
:030000000205E511
:0C05E500787FE4F6D8FD75815502062CE5
:10001600BB010689828A83E0225002E722BBFE02E8
:09002600E32289828A83E493221B
:10002F00BB010CE58229F582E5833AF583E0225086
:10003F0006E92582F8E622BBFE06E92582F8E222D0
:0D004F00E58229F582E5833AF583E49322EA
:10005C00BB010689828A83F0225002F722BBFE0183
:02006C00F3227D
:10006E00F8BB010DE58229F582E5833AF583E8F0C8
:10007E00225006E92582C8F622BBFE05E92582C874
:02008E00F2225C
:10009000BB010A89828A83E0F5F0A3E0225006873B
:1000A000F009E71922BBFE07E3F5F009E3192289FD
:0B00B000828A83E493F5F07401932230
:1000BB00BB0110E58229F582E5833AF583E0F5F083
:1000CB00A3E0225009E92582F886F008E622BBFE60
:1000DB000AE92582F8E2F5F008E222E5832AF583A6
:0800EB00E993F5F0A3E993226B
:1000F300BB010A89828A83F0E5F0A3F0225006F758
:0F01030009A7F01922BBFE06F3E5F009F3192254
:10011200F8BB0111E58229F582E5833AF583E8F01F
:10012200E5F0A3F0225009E92582C8F608A6F022DC
:0D013200BBFE09E92582C8F2E5F008F222C3
:10013F00E709F60870FA8046E709F20870FA803E80
:10014F0088828C83E709F0A370FA807EE309F608B2
:10015F0070FA8076E309F20870FA806E88828C83D9
:10016F00E309F0A370FA806289828A83E0A3F6081C
:10017F0070FA805689828A83E0A3F20870FA804A67
:10018F0080D280FA80C680D4806580F28031801062
:10019F0080A680EA809A80A880DA80E280CA8031C7
:1001AF0089828A83ECFAE493A3C8C582C8CCC5833D
:1001BF00CCF0A3C8C582C8CCC583CC70E9800D89AB
:1001CF00828A83E493A3F60870F9ECFAA9F0EDFBA9
:1001DF002289828A83ECFAE0A3C8C582C8CCC58382
:1001EF00CCF0A3C8C582C8CCC583CC70EA80DD89AA
:1001FF00828A83E493A3F20870F980CE88F0ED240D
:10020F0002B4040050C4F582EB2402B4040050BAC7
:09021F00232345822390018F7313
:1005F1000207B1E493A3F8E493A34003F68001F268
:1006010008DFF48029E493A3F85407240CC8C3330A
:10061100C4540F4420C8834004F456800146F6DFD9
:10062100E4800B0102040810204080900003E47E66
:10063100019360BCA3FF543F30E509541FFEE493CE
:10064100A360010ECF54C025E060A840B8E493A395
:10065100FAE493A3F8E493A3C8C582C8CAC583CAC0
:10066100F0A3C8C582C8CAC583CADFE9DEE780BE78
:0100070000F8
:00000001FF
